:100000000C942A000C9447000C9447000C94470071
:100010000C9447000C9447000C9447000C94470044
:100020000C9447000C9447000C9447000C94470034
:100030000C9447000C9447000C9447000C94470024
:100040000C9447000C9447000C9447000C94470014
:100050000C94470011241FBECFE5D8E0DEBFCDBF12
:1000600011E0A0E6B0E0E0EAFBE002C005900D92EE
:10007000A031B107D9F721E0A0E1B1E001C01D92A4
:10008000AE39B207E1F70E9464020C94CE050C94DD
:1000900000009C0183E083BF83E808C082BF98B75B
:1000A000916098BFA89508B600FEFDCF2150310998
:1000B000A8F713BE0895662311F0C09A01C0C09836
:1000C000C19882BB8FEF81BBC29A00000000000084
:1000D000C2980895C098C19A11BA90B3C29A00000C
:1000E0000000000011BA90B3C29899239CF30E94BB
:1000F0005B000895B89AB99ABA9A80E190E00E949C
:10010000490060E080E30E945B0085E090E00E948F
:10011000490060E080E30E945B0081E090E00E9483
:10012000490060E08CE30E946A0060E08CE00E947D
:100130006A0060E086E00E946A0060E081E00E9460
:100140006A00089560E081E00E946A000895CF93FC
:10015000C62F98E2899FC00D112460E082E00E94C2
:100160006A00CC2331F060E084E10E946A00C15053
:10017000D1F7CF910895CF93DF93EC012196FC0145
:100180008081882331F061E00E946A0089918111A9
:10019000FACFDF91CF91089514BA15BA95B321E043
:1001A00030E0A901082E02C0440F551F0A94E2F75F
:1001B000492B45BB94B302C0220F331F6A95E2F767
:1001C000922B94BB95B32095292325BB23B330E014
:1001D00002C0359527958A95E2F781E090E020FFEF
:1001E00002C080E090E008950F931F93CF93DF93B8
:1001F00000E010E01AC0BE016C5F7F4FC8010E9492
:10020000CC00009749F0000F111F000F111FC00F05
:10021000D11FCE0101960CC02196C430D10559F7EB
:100220000F5F1F4F0430110519F0C0E0D0E0E3CF9D
:10023000DF91CF911F910F910895E4E1F1E04CED32
:10024000489F9001499F300D11243183208373838F
:10025000628346EF489F9001499F300D11243583FA
:1002600024837783668345E051E0849F9001859FD6
:10027000300D949F300D112431872087738762875A
:1002800045E251E0849F9001859F300D949F300D91
:10029000112435872487778766874AE451E0849F55
:1002A0009001859F300D949F300D1124318B208B50
:1002B000738B628B31A320A39B01772314F42F5FF0
:1002C0003F4F359527953093370120933601E4E170
:1002D000F1E04DE551E0849F9001859F300D949FA2
:1002E000300D1124358B248B778B668B48E851E0D9
:1002F000849F9001859F300D949F300D1124318F84
:10030000208F738F628F81E090E0958F848F88ECCF
:1003100090E0978F868F08956091D4007091D500FA
:100320008091D6009091D7000E941D01D09AD89854
:100330000E947A000E94A200D09A81E090E0089585
:10034000CF93DF93CDB7DEB7A0970FB6F894DEBF9B
:100350000FBECDBF60E080E00E94A7008FE0E4EE1A
:10036000F0E0DE01119601900D928A95E1F7CE0141
:1003700001960E94BB0060E081E00E94A7008CE033
:10038000E3EFF0E0DE01519601900D928A95E1F7DE
:10039000CE0141960E94BB00A0960FB6F894DEBF36
:1003A0000FBECDBFDF91CF910895CF93DF93CDB72F
:1003B000DEB760970FB6F894DEBF0FBECDBF0E94C8
:1003C000A20060E080E00E94A7008EE0EFEFF0E086
:1003D000DE01119601900D928A95E1F7CE0101960A
:1003E0000E94BB0060960FB6F894DEBF0FBECDBF73
:1003F000DF91CF910895161617067CF4FC01ACE34B
:10040000B1E09B01220F331F820F931F2191319185
:100410002D933D93E817F907C9F770931301609383
:1004200012010895CF92DF92EF92FF921F93CF9324
:10043000DF93CDB7DEB760970FB6F894DEBF0FBE7F
:10044000CDBF83E490E09A8389836091100180E0BE
:100450000E94A700CE0101960E94BB0084EF91E0AC
:100460000E94490010E00F2EFDE0CF2EF1E0DF2EBC
:10047000F02DCE0101967C010E94A200DF92CF9266
:10048000FF92EF920E94F002612F80E00E94A7008D
:10049000C7010E94BB0084EF91E00E9449001F5FEA
:1004A0000F900F900F900F90103131F760960FB6AC
:1004B000F894DEBF0FBECDBFDF91CF911F91FF90AB
:1004C000EF90DF90CF90089580E0C4E010E0D1E09D
:1004D0000F2EF3E0EF2EF02D6894FF24F1F805E0E5
:1004E00007C08F2D05C08E2D03C0802F01C08D2F1A
:1004F000823091F028F4882349F0813051F024C0F3
:100500008430E1F090F08530E1F01EC00E948C0153
:1005100029C00E94A00131C060919600709197009F
:1005200088E990E00E94FB013AC060916000709100
:10053000610082E690E00E94FB0133C00E94D50179
:100540003BC00E9412024AC0823049F128F488233D
:1005500049F0813069F611C0843071F110F18530B5
:1005600039F63CC08D2FC4CF0E94F4008130910534
:1005700009F4B7CF029709F4B6CF60E070E080E0ED
:1005800090E00E94CC00892B79F361E070E080E07C
:1005900090E00E94CC00892B39F38D2FA9CF8C2FAE
:1005A000A7CF8C2FA5CF0E94F4008430910509F4C9
:1005B0009CCF089709F49BCF63E070E080E090E067
:1005C0000E94CC00892B79F363E070E081E090E039
:1005D0000E94CC00892B39F38C2F8ACF812F88CFB2
:1005E000A0E0B0E0E6EFF2E00C94A705AE014B5FAF
:1005F0005F4FFA0161917191AF0180919A019091E1
:100600009B010E940603E2E00C94C305ABE0B0E05E
:10061000ECE0F3E00C9497056C017B018A01FC018E
:1006200017821682838181FFCCC1CE0101963C01E5
:10063000F6019381F70193FD859193FF81917F01ED
:10064000882309F4BAC1853239F493FD859193FF6B
:1006500081917F01853229F4B60190E00E94FD046A
:10066000E7CF912C212C312CFFE1F315D8F08B3200
:1006700079F038F4803279F08332A1F4232D2061AF
:100680001DC08D3261F0803369F4232D216016C0C6
:10069000832D8260382EE32DE4603E2E2AC0F32D98
:1006A000F8601DC037FC2DC020ED280F2A3040F027
:1006B0008E32B9F436FC81C1232D2064322E19C04C
:1006C00036FE06C08AE0989E200D1124922E11C09D
:1006D000EAE02E9E200D1124222EF32DF0623F2EF3
:1006E00008C08C3621F4832D8068382E02C08836ED
:1006F00041F4F70193FD859193FF81917F01811171
:10070000B3CF982F9F7D9554933028F40C5F1F4FE3
:100710009FE399830DC0833631F0833771F08335C1
:1007200009F059C021C0F801808189830E5F1F4FF5
:1007300088248394912C530113C02801F2E04F0EBA
:10074000511CF801A080B18036FE03C0692D70E015
:1007500002C06FEF7FEFC5010E94F2044C018201DD
:10076000F32DFF773F2E16C0280122E0420E511CC8
:10077000F801A080B18036FE03C0692D70E002C090
:100780006FEF7FEFC5010E94E7044C01F32DF06885
:100790003F2E820133FC1BC0822D90E08816990603
:1007A000B0F4B60180E290E00E94FD042A94F4CFF8
:1007B000F50137FC859137FE81915F01B60190E02C
:1007C0000E94FD0421102A9421E0821A91088114CC
:1007D000910471F7E8C0843611F0893641F5F801CB
:1007E00037FE07C060817181828193810C5F1F4F4A
:1007F00008C060817181072E000C880B990B0E5F79
:100800001F4FF32DFF763F2E97FF09C090958095DF
:10081000709561957F4F8F4F9F4FF0683F2E2AE074
:1008200030E0A3010E943905882E861845C085371F
:1008300031F4232D2F7EB22E2AE030E025C0932DF7
:10084000997FB92E8F36C1F018F4883579F0B5C08C
:10085000803719F0883721F0B0C0E92FE061BE2E53
:10086000B4FE0DC0FB2DF460BF2E09C034FE0AC0DB
:10087000292F2660B22E06C028E030E005C020E116
:1008800030E002C020E132E0F801B7FE07C060812D
:100890007181828193810C5F1F4F06C060817181DD
:1008A00080E090E00E5F1F4FA3010E943905882E63
:1008B0008618FB2DFF773F2E36FE0DC0232D2E7F91
:1008C000A22E891458F434FE0BC032FC09C0832DCB
:1008D0008E7EA82E05C0B82CA32C03C0B82C01C056
:1008E000B92CA4FE0FC0FE01E80DF11D80818033FC
:1008F00021F49A2D997EA92E09C0A2FE06C0B394B8
:10090000B39404C08A2D867809F0B394A3FC11C077
:10091000A0FE06C0B21488F4280C922C9B180EC0BE
:10092000B21460F4B60180E290E00E94FD04B3943A
:10093000F7CFB21418F42B1802C0982C212CA4FE67
:1009400010C0B60180E390E00E94FD04A2FE17C033
:10095000A1FC03C088E790E002C088E590E0B60102
:100960000CC08A2D867859F0A1FE02C08BE201C02E
:1009700080E2A7FC8DE2B60190E00E94FD0489149C
:1009800038F4B60180E390E00E94FD049A94F7CF1A
:100990008A94F301E80DF11D8081B60190E00E9478
:1009A000FD048110F5CF222009F442CEB60180E289
:1009B00090E00E94FD042A94F6CFF601868197818B
:1009C00002C08FEF9FEF2B96E2E10C94B305FC0180
:1009D0000590615070400110D8F7809590958E0F6A
:1009E0009F1F0895FC016150704001900110D8F7DD
:1009F000809590958E0F9F1F08950F931F93CF930F
:100A0000DF93FB01238121FD03C08FEF9FEF2CC0FB
:100A100022FF16C046815781248135814217530732
:100A200044F4A081B1819D012F5F3F4F318320832A
:100A30008C93268137812F5F3F4F3783268314C0E5
:100A40008B01EC01FB010084F185E02D0995892BD8
:100A5000E1F6D80116968D919C91179701961796FD
:100A60009C938E931697CE01DF91CF911F910F919A
:100A70000895FA01AA27283051F1203181F1E89434
:100A80006F936E7F6E5F7F4F8F4F9F4FAF4FB1E081
:100A90003ED0B4E03CD0670F781F891F9A1FA11D7C
:100AA000680F791F8A1F911DA11D6A0F711D811D7D
:100AB000911DA11D20D009F468943F912AE0269F42
:100AC00011243019305D3193DEF6CF010895462FA1
:100AD0004770405D4193B3E00FD0C9F7F6CF462F82
:100AE0004F70405D4A3318F0495D31FD40524193EB
:100AF00002D0A9F7EACFB4E0A695979587957795A8
:100B00006795BA95C9F700976105710508959B012E
:100B1000AC010A2E06945795479537952795BA95B7
:100B2000C9F7620F731F841F951FA01D08952F9290
:100B30003F924F925F926F927F928F929F92AF926D
:100B4000BF92CF92DF92EF92FF920F931F93CF93BA
:100B5000DF93CDB7DEB7CA1BDB0B0FB6F894DEBF51
:100B60000FBECDBF09942A88398848885F846E8477
:100B70007D848C849B84AA84B984C884DF80EE80C1
:100B8000FD800C811B81AA81B981CE0FD11D0FB6CA
:100B9000F894DEBF0FBECDBFED010895F894FFCFEE
:100BA0001A00040003000200030004000400040013
:100BB0000300030003000400060006000400030015
:100BC000020003000400040004000400030003000A
:100BD0000400030002001E00040004000400FFFFE4
:100BE000040004000400FFFF0400060002000300EC
:100BF0000400FFFF050005000500050005000400D6
:100C000004000800080004000300030004000300BF
:100C1000FEFF0600820002004E6F7720706C617943
:100C2000696E67004A696E676C652042656C6C731B
:100C30003A31004D617279204C616D623A32005058
:100C40006C61793F20413D792C423D6E00430000AC
:00000001FF
