S010000050726F6A656374352E7372656308
S11300000C942A000C9447000C9447000C9447006D
S11300100C9447000C9447000C9447000C94470040
S11300200C9447000C9447000C9447000C94470030
S11300300C9447000C9447000C9447000C94470020
S11300400C9447000C9447000C9447000C94470010
S11300500C94470011241FBECFE5D8E0DEBFCDBF0E
S113006010E0A0E6B0E0E0E6F3E002C005900D92F7
S1130070A237B107D9F720E0A2E7B0E001C01D9292
S1130080AA3BB207E1F70E947D010C94AE010C94E7
S113009000009C0183E083BF83E808C082BF98B757
S11300A0916098BFA89508B600FEFDCF2150310994
S11300B0A8F713BE0895662311F0C09A01C0C09832
S11300C0C19882BB8FEF81BBC29A00000000000080
S11300D0C2980895C098C19A11BA90B3C29A000008
S11300E00000000011BA90B3C29899239CF30E94B7
S11300F05B000895B89AB99ABA9A80E190E00E9498
S1130100490060E080E30E945B0085E090E00E948B
S1130110490060E080E30E945B0081E090E00E947F
S1130120490060E08CE30E946A0060E08CE00E9479
S11301306A0060E086E00E946A0060E081E00E945C
S11301406A00089560E081E00E946A000895CF93F8
S1130150C62F98E2899FC00D112460E082E00E94BE
S11301606A00CC2331F060E084E10E946A00C1504F
S1130170D1F7CF910895CF93DF93EC012196FC0141
S11301808081882331F061E00E946A0089918111A5
S1130190FACFDF91CF91089514BA15BA95B321E03F
S11301A030E0A901082E02C0440F551F0A94E2F75B
S11301B0492B45BB94B302C0220F331F6A95E2F763
S11301C0922B94BB95B32095292325BB23B330E010
S11301D002C0359527958A95E2F781E090E020FFEB
S11301E002C080E090E008950F931F93CF93DF93B4
S11301F000E010E01AC0BE016C5F7F4FC8010E948E
S1130200CC00009749F0000F111F000F111FC00F01
S1130210D11FCE0101960CC02196C430D10559F7E7
S11302200F5F1F4F0430110519F0C0E0D0E0E3CF99
S1130230DF91CF911F910F910895E2E7F0E045E03F
S113024051E0849F9001859F300D949F300D1124BF
S1130250318320837383628345E251E0849F90015C
S1130260859F300D949F300D11243583248377832B
S113027066834AE451E0849F9001859F300D949FEA
S1130280300D112431872087738762874DE551E053
S1130290849F9001859F300D949F300D11243587E4
S11302A024877787668748E851E0849F9001859F7B
S11302B0300D949F300D1124318B208B738B628B06
S11302C081E090E0958B848B88EC90E0978B868B13
S11302D00895609160007091610080916200909136
S11302E063000E941D01D09AD8980E947A000E944F
S11302F0A200D09A81E090E008950E946901C0E0D4
S1130300D0E06894CC24C1F8D12C01E010E0E12CB9
S1130310F12C02C0CC2DDD2DC130D10581F020F0AF
S1130320C230D10591F0F8CF0E94F400302F212F74
S1130330029710F03E2D2F2DC32FD22FEDCF0E9408
S1130340F4008533914341F7E5CF60E080E00E94FB
S1130350A70084E690E00E94BB00DECFF894FFCFB4
S1130360820002005374617274696E672047616D84
S1050370650022
S9030000FC
